{
  "_format": "hh-sol-artifact-1",
  "contractName": "PaddyProcurement",
  "sourceName": "contracts/PaddyProcurement.sol",
  "abi": [
    {
      "inputs": [],
      "stateMutability": "nonpayable",
      "type": "constructor"
    },
    {
      "anonymous": false,
      "inputs": [
        {
          "indexed": true,
          "internalType": "address",
          "name": "farmer",
          "type": "address"
        },
        {
          "indexed": true,
          "internalType": "address",
          "name": "miller",
          "type": "address"
        },
        {
          "indexed": false,
          "internalType": "bytes32",
          "name": "orderId",
          "type": "bytes32"
        }
      ],
      "name": "MillerAssigned",
      "type": "event"
    },
    {
      "anonymous": false,
      "inputs": [
        {
          "indexed": true,
          "internalType": "address",
          "name": "farmer",
          "type": "address"
        },
        {
          "indexed": true,
          "internalType": "address",
          "name": "fci",
          "type": "address"
        },
        {
          "indexed": false,
          "internalType": "uint256",
          "name": "quantity",
          "type": "uint256"
        },
        {
          "indexed": false,
          "internalType": "uint256",
          "name": "dateTime",
          "type": "uint256"
        },
        {
          "indexed": false,
          "internalType": "enum PaddyProcurement.OrderStatus",
          "name": "status",
          "type": "uint8"
        },
        {
          "indexed": false,
          "internalType": "bytes32",
          "name": "orderId",
          "type": "bytes32"
        }
      ],
      "name": "OrderCreated",
      "type": "event"
    },
    {
      "anonymous": false,
      "inputs": [
        {
          "indexed": true,
          "internalType": "address",
          "name": "fci",
          "type": "address"
        },
        {
          "indexed": true,
          "internalType": "address",
          "name": "farmer",
          "type": "address"
        },
        {
          "indexed": false,
          "internalType": "uint256",
          "name": "amount",
          "type": "uint256"
        },
        {
          "indexed": false,
          "internalType": "bytes32",
          "name": "orderId",
          "type": "bytes32"
        }
      ],
      "name": "PaymentCompleted",
      "type": "event"
    },
    {
      "anonymous": false,
      "inputs": [
        {
          "indexed": true,
          "internalType": "address",
          "name": "fci",
          "type": "address"
        },
        {
          "indexed": true,
          "internalType": "address",
          "name": "farmer",
          "type": "address"
        },
        {
          "indexed": false,
          "internalType": "bytes32",
          "name": "orderId",
          "type": "bytes32"
        }
      ],
      "name": "QualityAssessed",
      "type": "event"
    },
    {
      "inputs": [
        {
          "internalType": "address",
          "name": "_farmer",
          "type": "address"
        },
        {
          "internalType": "bytes32",
          "name": "_orderId",
          "type": "bytes32"
        }
      ],
      "name": "assessQuality",
      "outputs": [],
      "stateMutability": "nonpayable",
      "type": "function"
    },
    {
      "inputs": [
        {
          "internalType": "address",
          "name": "_farmer",
          "type": "address"
        },
        {
          "internalType": "bytes32",
          "name": "_orderId",
          "type": "bytes32"
        },
        {
          "internalType": "address",
          "name": "_selectedMiller",
          "type": "address"
        }
      ],
      "name": "assignMiller",
      "outputs": [],
      "stateMutability": "nonpayable",
      "type": "function"
    },
    {
      "inputs": [
        {
          "internalType": "address",
          "name": "_farmer",
          "type": "address"
        },
        {
          "internalType": "bytes32",
          "name": "_orderId",
          "type": "bytes32"
        },
        {
          "internalType": "uint256",
          "name": "_quantity",
          "type": "uint256"
        }
      ],
      "name": "completePayment",
      "outputs": [],
      "stateMutability": "payable",
      "type": "function"
    },
    {
      "inputs": [
        {
          "internalType": "address",
          "name": "_farmer",
          "type": "address"
        },
        {
          "internalType": "bytes32",
          "name": "_orderId",
          "type": "bytes32"
        }
      ],
      "name": "confirmDelivery",
      "outputs": [],
      "stateMutability": "nonpayable",
      "type": "function"
    },
    {
      "inputs": [
        {
          "internalType": "address",
          "name": "_fci",
          "type": "address"
        },
        {
          "internalType": "uint256",
          "name": "_quantity",
          "type": "uint256"
        }
      ],
      "name": "createOrder",
      "outputs": [],
      "stateMutability": "nonpayable",
      "type": "function"
    },
    {
      "inputs": [
        {
          "internalType": "uint256",
          "name": "",
          "type": "uint256"
        }
      ],
      "name": "farmersList",
      "outputs": [
        {
          "internalType": "address",
          "name": "",
          "type": "address"
        }
      ],
      "stateMutability": "view",
      "type": "function"
    },
    {
      "inputs": [],
      "name": "fciAddress",
      "outputs": [
        {
          "internalType": "address",
          "name": "",
          "type": "address"
        }
      ],
      "stateMutability": "view",
      "type": "function"
    },
    {
      "inputs": [
        {
          "internalType": "address",
          "name": "_miller",
          "type": "address"
        }
      ],
      "name": "getAcceptedOrdersByMiller",
      "outputs": [
        {
          "components": [
            {
              "internalType": "address",
              "name": "farmer",
              "type": "address"
            },
            {
              "internalType": "address",
              "name": "fci",
              "type": "address"
            },
            {
              "internalType": "uint256",
              "name": "quantity",
              "type": "uint256"
            },
            {
              "internalType": "uint256",
              "name": "dateTime",
              "type": "uint256"
            },
            {
              "internalType": "enum PaddyProcurement.OrderStatus",
              "name": "status",
              "type": "uint8"
            },
            {
              "internalType": "address",
              "name": "assignedMiller",
              "type": "address"
            },
            {
              "internalType": "bool",
              "name": "qualityAssessed",
              "type": "bool"
            },
            {
              "internalType": "bool",
              "name": "paymentCompleted",
              "type": "bool"
            },
            {
              "internalType": "bool",
              "name": "deliveredToMiller",
              "type": "bool"
            },
            {
              "internalType": "bytes32",
              "name": "orderId",
              "type": "bytes32"
            }
          ],
          "internalType": "struct PaddyProcurement.Order[]",
          "name": "",
          "type": "tuple[]"
        }
      ],
      "stateMutability": "view",
      "type": "function"
    },
    {
      "inputs": [],
      "name": "getAllTransactionsOfFCI",
      "outputs": [
        {
          "components": [
            {
              "internalType": "address",
              "name": "farmer",
              "type": "address"
            },
            {
              "internalType": "address",
              "name": "fci",
              "type": "address"
            },
            {
              "internalType": "uint256",
              "name": "quantity",
              "type": "uint256"
            },
            {
              "internalType": "uint256",
              "name": "dateTime",
              "type": "uint256"
            },
            {
              "internalType": "enum PaddyProcurement.OrderStatus",
              "name": "status",
              "type": "uint8"
            },
            {
              "internalType": "address",
              "name": "assignedMiller",
              "type": "address"
            },
            {
              "internalType": "bool",
              "name": "qualityAssessed",
              "type": "bool"
            },
            {
              "internalType": "bool",
              "name": "paymentCompleted",
              "type": "bool"
            },
            {
              "internalType": "bool",
              "name": "deliveredToMiller",
              "type": "bool"
            },
            {
              "internalType": "bytes32",
              "name": "orderId",
              "type": "bytes32"
            }
          ],
          "internalType": "struct PaddyProcurement.Order[]",
          "name": "",
          "type": "tuple[]"
        }
      ],
      "stateMutability": "view",
      "type": "function"
    },
    {
      "inputs": [],
      "name": "getFCIAddress",
      "outputs": [
        {
          "internalType": "address",
          "name": "",
          "type": "address"
        }
      ],
      "stateMutability": "view",
      "type": "function"
    },
    {
      "inputs": [
        {
          "internalType": "address",
          "name": "_miller",
          "type": "address"
        }
      ],
      "name": "getMillerCapacity",
      "outputs": [
        {
          "internalType": "uint256",
          "name": "",
          "type": "uint256"
        },
        {
          "internalType": "uint256",
          "name": "",
          "type": "uint256"
        },
        {
          "internalType": "uint256",
          "name": "",
          "type": "uint256"
        }
      ],
      "stateMutability": "view",
      "type": "function"
    },
    {
      "inputs": [
        {
          "internalType": "address",
          "name": "_farmer",
          "type": "address"
        }
      ],
      "name": "getOrdersByFarmer",
      "outputs": [
        {
          "components": [
            {
              "internalType": "address",
              "name": "farmer",
              "type": "address"
            },
            {
              "internalType": "address",
              "name": "fci",
              "type": "address"
            },
            {
              "internalType": "uint256",
              "name": "quantity",
              "type": "uint256"
            },
            {
              "internalType": "uint256",
              "name": "dateTime",
              "type": "uint256"
            },
            {
              "internalType": "enum PaddyProcurement.OrderStatus",
              "name": "status",
              "type": "uint8"
            },
            {
              "internalType": "address",
              "name": "assignedMiller",
              "type": "address"
            },
            {
              "internalType": "bool",
              "name": "qualityAssessed",
              "type": "bool"
            },
            {
              "internalType": "bool",
              "name": "paymentCompleted",
              "type": "bool"
            },
            {
              "internalType": "bool",
              "name": "deliveredToMiller",
              "type": "bool"
            },
            {
              "internalType": "bytes32",
              "name": "orderId",
              "type": "bytes32"
            }
          ],
          "internalType": "struct PaddyProcurement.Order[]",
          "name": "",
          "type": "tuple[]"
        }
      ],
      "stateMutability": "view",
      "type": "function"
    },
    {
      "inputs": [
        {
          "internalType": "address",
          "name": "_miller",
          "type": "address"
        }
      ],
      "name": "getPendingOrdersByMiller",
      "outputs": [
        {
          "components": [
            {
              "internalType": "address",
              "name": "farmer",
              "type": "address"
            },
            {
              "internalType": "address",
              "name": "fci",
              "type": "address"
            },
            {
              "internalType": "uint256",
              "name": "quantity",
              "type": "uint256"
            },
            {
              "internalType": "uint256",
              "name": "dateTime",
              "type": "uint256"
            },
            {
              "internalType": "enum PaddyProcurement.OrderStatus",
              "name": "status",
              "type": "uint8"
            },
            {
              "internalType": "address",
              "name": "assignedMiller",
              "type": "address"
            },
            {
              "internalType": "bool",
              "name": "qualityAssessed",
              "type": "bool"
            },
            {
              "internalType": "bool",
              "name": "paymentCompleted",
              "type": "bool"
            },
            {
              "internalType": "bool",
              "name": "deliveredToMiller",
              "type": "bool"
            },
            {
              "internalType": "bytes32",
              "name": "orderId",
              "type": "bytes32"
            }
          ],
          "internalType": "struct PaddyProcurement.Order[]",
          "name": "",
          "type": "tuple[]"
        }
      ],
      "stateMutability": "view",
      "type": "function"
    },
    {
      "inputs": [
        {
          "internalType": "address",
          "name": "",
          "type": "address"
        }
      ],
      "name": "isFCI",
      "outputs": [
        {
          "internalType": "bool",
          "name": "",
          "type": "bool"
        }
      ],
      "stateMutability": "view",
      "type": "function"
    },
    {
      "inputs": [
        {
          "internalType": "address",
          "name": "",
          "type": "address"
        }
      ],
      "name": "isFarmer",
      "outputs": [
        {
          "internalType": "bool",
          "name": "",
          "type": "bool"
        }
      ],
      "stateMutability": "view",
      "type": "function"
    },
    {
      "inputs": [
        {
          "internalType": "address",
          "name": "",
          "type": "address"
        }
      ],
      "name": "isMiller",
      "outputs": [
        {
          "internalType": "bool",
          "name": "",
          "type": "bool"
        }
      ],
      "stateMutability": "view",
      "type": "function"
    },
    {
      "inputs": [
        {
          "internalType": "address",
          "name": "",
          "type": "address"
        }
      ],
      "name": "millerInventories",
      "outputs": [
        {
          "internalType": "uint256",
          "name": "maxStorageCapacity",
          "type": "uint256"
        },
        {
          "internalType": "uint256",
          "name": "targetQuantity",
          "type": "uint256"
        },
        {
          "internalType": "uint256",
          "name": "availableCapacity",
          "type": "uint256"
        }
      ],
      "stateMutability": "view",
      "type": "function"
    },
    {
      "inputs": [
        {
          "internalType": "uint256",
          "name": "",
          "type": "uint256"
        }
      ],
      "name": "millersList",
      "outputs": [
        {
          "internalType": "address",
          "name": "",
          "type": "address"
        }
      ],
      "stateMutability": "view",
      "type": "function"
    },
    {
      "inputs": [
        {
          "internalType": "bytes32",
          "name": "",
          "type": "bytes32"
        }
      ],
      "name": "orderExists",
      "outputs": [
        {
          "internalType": "bool",
          "name": "",
          "type": "bool"
        }
      ],
      "stateMutability": "view",
      "type": "function"
    },
    {
      "inputs": [
        {
          "internalType": "address",
          "name": "",
          "type": "address"
        },
        {
          "internalType": "uint256",
          "name": "",
          "type": "uint256"
        }
      ],
      "name": "ordersOfFarmer",
      "outputs": [
        {
          "internalType": "address",
          "name": "farmer",
          "type": "address"
        },
        {
          "internalType": "address",
          "name": "fci",
          "type": "address"
        },
        {
          "internalType": "uint256",
          "name": "quantity",
          "type": "uint256"
        },
        {
          "internalType": "uint256",
          "name": "dateTime",
          "type": "uint256"
        },
        {
          "internalType": "enum PaddyProcurement.OrderStatus",
          "name": "status",
          "type": "uint8"
        },
        {
          "internalType": "address",
          "name": "assignedMiller",
          "type": "address"
        },
        {
          "internalType": "bool",
          "name": "qualityAssessed",
          "type": "bool"
        },
        {
          "internalType": "bool",
          "name": "paymentCompleted",
          "type": "bool"
        },
        {
          "internalType": "bool",
          "name": "deliveredToMiller",
          "type": "bool"
        },
        {
          "internalType": "bytes32",
          "name": "orderId",
          "type": "bytes32"
        }
      ],
      "stateMutability": "view",
      "type": "function"
    },
    {
      "inputs": [
        {
          "internalType": "address",
          "name": "",
          "type": "address"
        },
        {
          "internalType": "uint256",
          "name": "",
          "type": "uint256"
        }
      ],
      "name": "ordersOfMiller",
      "outputs": [
        {
          "internalType": "address",
          "name": "farmer",
          "type": "address"
        },
        {
          "internalType": "address",
          "name": "fci",
          "type": "address"
        },
        {
          "internalType": "uint256",
          "name": "quantity",
          "type": "uint256"
        },
        {
          "internalType": "uint256",
          "name": "dateTime",
          "type": "uint256"
        },
        {
          "internalType": "enum PaddyProcurement.OrderStatus",
          "name": "status",
          "type": "uint8"
        },
        {
          "internalType": "address",
          "name": "assignedMiller",
          "type": "address"
        },
        {
          "internalType": "bool",
          "name": "qualityAssessed",
          "type": "bool"
        },
        {
          "internalType": "bool",
          "name": "paymentCompleted",
          "type": "bool"
        },
        {
          "internalType": "bool",
          "name": "deliveredToMiller",
          "type": "bool"
        },
        {
          "internalType": "bytes32",
          "name": "orderId",
          "type": "bytes32"
        }
      ],
      "stateMutability": "view",
      "type": "function"
    },
    {
      "inputs": [
        {
          "internalType": "address",
          "name": "_farmer",
          "type": "address"
        }
      ],
      "name": "registerAsFarmer",
      "outputs": [],
      "stateMutability": "nonpayable",
      "type": "function"
    },
    {
      "inputs": [
        {
          "internalType": "address",
          "name": "_miller",
          "type": "address"
        },
        {
          "internalType": "uint256",
          "name": "_maxStorageCapacity",
          "type": "uint256"
        }
      ],
      "name": "registerAsMiller",
      "outputs": [],
      "stateMutability": "nonpayable",
      "type": "function"
    },
    {
      "inputs": [
        {
          "internalType": "address",
          "name": "_fciAddress",
          "type": "address"
        }
      ],
      "name": "registerFCIAddress",
      "outputs": [],
      "stateMutability": "nonpayable",
      "type": "function"
    },
    {
      "inputs": [
        {
          "internalType": "uint256",
          "name": "_targetQuantity",
          "type": "uint256"
        }
      ],
      "name": "setTargetQuantity",
      "outputs": [],
      "stateMutability": "nonpayable",
      "type": "function"
    },
    {
      "inputs": [
        {
          "internalType": "bytes32",
          "name": "_orderId",
          "type": "bytes32"
        }
      ],
      "name": "startDelivery",
      "outputs": [],
      "stateMutability": "nonpayable",
      "type": "function"
    },
    {
      "inputs": [
        {
          "internalType": "address",
          "name": "",
          "type": "address"
        },
        {
          "internalType": "uint256",
          "name": "",
          "type": "uint256"
        }
      ],
      "name": "transactionsOfFCI",
      "outputs": [
        {
          "internalType": "address",
          "name": "farmer",
          "type": "address"
        },
        {
          "internalType": "address",
          "name": "fci",
          "type": "address"
        },
        {
          "internalType": "uint256",
          "name": "quantity",
          "type": "uint256"
        },
        {
          "internalType": "uint256",
          "name": "dateTime",
          "type": "uint256"
        },
        {
          "internalType": "enum PaddyProcurement.OrderStatus",
          "name": "status",
          "type": "uint8"
        },
        {
          "internalType": "address",
          "name": "assignedMiller",
          "type": "address"
        },
        {
          "internalType": "bool",
          "name": "qualityAssessed",
          "type": "bool"
        },
        {
          "internalType": "bool",
          "name": "paymentCompleted",
          "type": "bool"
        },
        {
          "internalType": "bool",
          "name": "deliveredToMiller",
          "type": "bool"
        },
        {
          "internalType": "bytes32",
          "name": "orderId",
          "type": "bytes32"
        }
      ],
      "stateMutability": "view",
      "type": "function"
    }
  ],
  "bytecode": "0x60806040523480156200001157600080fd5b50620000586040518060400160405280601a81526020017f50616464792050726f637572656d656e74204465706c6f7965640000000000008152506200005e60201b60201c565b62000258565b620000fe8160405160240162000075919062000205565b6040516020818303038152906040527f41304fac000000000000000000000000000000000000000000000000000000007bffffffffffffffffffffffffffffffffffffffffffffffffffffffff19166020820180517bffffffffffffffffffffffffffffffffffffffffffffffffffffffff83818316178352505050506200010160201b60201c565b50565b6200012781620001226200012a60201b62004b38176200014b60201b60201c565b60201c565b50565b60006a636f6e736f6c652e6c6f679050600080835160208501845afa505050565b6200015f60201b62004b5917819050919050565b6200016962000229565b565b600081519050919050565b600082825260208201905092915050565b60005b83811015620001a75780820151818401526020810190506200018a565b60008484015250505050565b6000601f19601f8301169050919050565b6000620001d1826200016b565b620001dd818562000176565b9350620001ef81856020860162000187565b620001fa81620001b3565b840191505092915050565b60006020820190508181036000830152620002218184620001c4565b905092915050565b7f4e487b7100000000000000000000000000000000000000000000000000000000600052605160045260246000fd5b615db480620002686000396000f3fe60806040526004361061019b5760003560e01c80639c110fb7116100ec578063be9de1d61161008a578063f1d51c1811610064578063f1d51c1814610667578063f5cbf5c9146106a4578063fea7d77b146106cf578063ffb4a7cb146106f85761019b565b8063be9de1d6146105dc578063de1a673e14610622578063e7ca4bd11461064b5761019b565b8063a800c50a116100c6578063a800c50a146104fa578063ad96535714610537578063b66b85ca14610560578063b94290691461059f5761019b565b80639c110fb71461043a5780639cdc3f4a146104775780639debd02b146104bd5761019b565b80634ca865a91161015957806379b142e81161013357806379b142e8146103825780637b96f98b146103bf57806386404c87146103e8578063978a22a6146104115761019b565b80634ca865a9146102ea5780636c16b545146103135780636d9027c81461033c5761019b565b80629822c2146101a0578063175493f0146101dd578063185b4b301461021c57806320388ea6146102475780632a4d7f36146102845780632cb77e9f146102ad575b600080fd5b3480156101ac57600080fd5b506101c760048036038101906101c29190614c76565b610723565b6040516101d49190614cbe565b60405180910390f35b3480156101e957600080fd5b5061020460048036038101906101ff9190614c76565b610743565b60405161021393929190614cf2565b60405180910390f35b34801561022857600080fd5b506102316107d0565b60405161023e9190614f62565b60405180910390f35b34801561025357600080fd5b5061026e60048036038101906102699190614c76565b610ac8565b60405161027b9190614f62565b60405180910390f35b34801561029057600080fd5b506102ab60048036038101906102a69190614fb0565b6110af565b005b3480156102b957600080fd5b506102d460048036038101906102cf9190615003565b61184f565b6040516102e19190614cbe565b60405180910390f35b3480156102f657600080fd5b50610311600480360381019061030c9190615030565b61186f565b005b34801561031f57600080fd5b5061033a6004803603810190610335919061509c565b611cd8565b005b34801561034857600080fd5b50610363600480360381019061035e919061509c565b6124dc565b6040516103799a99989796959493929190615109565b60405180910390f35b34801561038e57600080fd5b506103a960048036038101906103a491906151a5565b6125e1565b6040516103b691906151d2565b60405180910390f35b3480156103cb57600080fd5b506103e660048036038101906103e1919061509c565b612620565b005b3480156103f457600080fd5b5061040f600480360381019061040a9190615003565b61285f565b005b34801561041d57600080fd5b5061043860048036038101906104339190614c76565b612d20565b005b34801561044657600080fd5b50610461600480360381019061045c9190614c76565b612f17565b60405161046e9190614f62565b60405180910390f35b34801561048357600080fd5b5061049e6004803603810190610499919061509c565b6134fc565b6040516104b49a99989796959493929190615109565b60405180910390f35b3480156104c957600080fd5b506104e460048036038101906104df9190614c76565b613601565b6040516104f19190614f62565b60405180910390f35b34801561050657600080fd5b50610521600480360381019061051c9190614c76565b61392e565b60405161052e9190614cbe565b60405180910390f35b34801561054357600080fd5b5061055e60048036038101906105599190615030565b61394e565b005b34801561056c57600080fd5b5061058760048036038101906105829190614c76565b613f4a565b60405161059693929190614cf2565b60405180910390f35b3480156105ab57600080fd5b506105c660048036038101906105c19190614c76565b613f74565b6040516105d39190614cbe565b60405180910390f35b3480156105e857600080fd5b5061060360048036038101906105fe919061509c565b613f94565b6040516106199a99989796959493929190615109565b60405180910390f35b34801561062e57600080fd5b5061064960048036038101906106449190614c76565b614099565b005b610665600480360381019061066091906151ed565b61426d565b005b34801561067357600080fd5b5061068e600480360381019061068991906151a5565b61498f565b60405161069b91906151d2565b60405180910390f35b3480156106b057600080fd5b506106b96149ce565b6040516106c691906151d2565b60405180910390f35b3480156106db57600080fd5b506106f660048036038101906106f191906151a5565b6149f2565b005b34801561070457600080fd5b5061070d614b0f565b60405161071a91906151d2565b60405180910390f35b60036020528060005260406000206000915054906101000a900460ff1681565b600080600080600960008673ffffffffffffffffffffffffffffffffffffffff1673ffffffffffffffffffffffffffffffffffffffff16815260200190815260200160002060405180606001604052908160008201548152602001600182015481526020016002820154815250509050806000015181602001518260400151935093509350509193909250565b606060008054906101000a900473ffffffffffffffffffffffffffffffffffffffff1673ffffffffffffffffffffffffffffffffffffffff163373ffffffffffffffffffffffffffffffffffffffff1614610860576040517f08c379a0000000000000000000000000000000000000000000000000000000008152600401610857906152c3565b60405180910390fd5b600a60008060009054906101000a900473ffffffffffffffffffffffffffffffffffffffff1673ffffffffffffffffffffffffffffffffffffffff1673ffffffffffffffffffffffffffffffffffffffff168152602001908152602001600020805480602002602001604051908101604052809291908181526020016000905b82821015610abf5783829060005260206000209060060201604051806101400160405290816000820160009054906101000a900473ffffffffffffffffffffffffffffffffffffffff1673ffffffffffffffffffffffffffffffffffffffff1673ffffffffffffffffffffffffffffffffffffffff1681526020016001820160009054906101000a900473ffffffffffffffffffffffffffffffffffffffff1673ffffffffffffffffffffffffffffffffffffffff1673ffffffffffffffffffffffffffffffffffffffff16815260200160028201548152602001600382015481526020016004820160009054906101000a900460ff1660058111156109e9576109e8614d73565b5b60058111156109fb576109fa614d73565b5b81526020016004820160019054906101000a900473ffffffffffffffffffffffffffffffffffffffff1673ffffffffffffffffffffffffffffffffffffffff1673ffffffffffffffffffffffffffffffffffffffff1681526020016004820160159054906101000a900460ff161515151581526020016004820160169054906101000a900460ff161515151581526020016004820160179054906101000a900460ff16151515158152602001600582015481525050815260200190600101906108e0565b50505050905090565b606060008054906101000a900473ffffffffffffffffffffffffffffffffffffffff1673ffffffffffffffffffffffffffffffffffffffff163373ffffffffffffffffffffffffffffffffffffffff161480610b6d5750600360003373ffffffffffffffffffffffffffffffffffffffff1673ffffffffffffffffffffffffffffffffffffffff16815260200190815260200160002060009054906101000a900460ff165b610bac576040517f08c379a0000000000000000000000000000000000000000000000000000000008152600401610ba390615355565b60405180910390fd5b600360008373ffffffffffffffffffffffffffffffffffffffff1673ffffffffffffffffffffffffffffffffffffffff16815260200190815260200160002060009054906101000a900460ff16610c38576040517f08c379a0000000000000000000000000000000000000000000000000000000008152600401610c2f906153c1565b60405180910390fd5b6000600860008473ffffffffffffffffffffffffffffffffffffffff1673ffffffffffffffffffffffffffffffffffffffff168152602001908152602001600020805480602002602001604051908101604052809291908181526020016000905b82821015610e785783829060005260206000209060060201604051806101400160405290816000820160009054906101000a900473ffffffffffffffffffffffffffffffffffffffff1673ffffffffffffffffffffffffffffffffffffffff1673ffffffffffffffffffffffffffffffffffffffff1681526020016001820160009054906101000a900473ffffffffffffffffffffffffffffffffffffffff1673ffffffffffffffffffffffffffffffffffffffff1673ffffffffffffffffffffffffffffffffffffffff16815260200160028201548152602001600382015481526020016004820160009054906101000a900460ff166005811115610da257610da1614d73565b5b6005811115610db457610db3614d73565b5b81526020016004820160019054906101000a900473ffffffffffffffffffffffffffffffffffffffff1673ffffffffffffffffffffffffffffffffffffffff1673ffffffffffffffffffffffffffffffffffffffff1681526020016004820160159054906101000a900460ff161515151581526020016004820160169054906101000a900460ff161515151581526020016004820160179054906101000a900460ff1615151515815260200160058201548152505081526020019060010190610c99565b5050505090506000805b8251811015610f47578473ffffffffffffffffffffffffffffffffffffffff16838281518110610eb557610eb46153e1565b5b602002602001015160a0015173ffffffffffffffffffffffffffffffffffffffff16148015610f265750600580811115610ef257610ef1614d73565b5b838281518110610f0557610f046153e1565b5b6020026020010151608001516005811115610f2357610f22614d73565b5b14155b15610f3a578180610f369061543f565b9250505b8080600101915050610e82565b5060008167ffffffffffffffff811115610f6457610f63615487565b5b604051908082528060200260200182016040528015610f9d57816020015b610f8a614b63565b815260200190600190039081610f825790505b5090506000805b84518110156110a2578673ffffffffffffffffffffffffffffffffffffffff16858281518110610fd757610fd66153e1565b5b602002602001015160a0015173ffffffffffffffffffffffffffffffffffffffff16148015611048575060058081111561101457611013614d73565b5b858281518110611027576110266153e1565b5b602002602001015160800151600581111561104557611044614d73565b5b14155b15611095578481815181106110605761105f6153e1565b5b602002602001015183838151811061107b5761107a6153e1565b5b602002602001018190525081806110919061543f565b9250505b8080600101915050610fa4565b5081945050505050919050565b60008054906101000a900473ffffffffffffffffffffffffffffffffffffffff1673ffffffffffffffffffffffffffffffffffffffff163373ffffffffffffffffffffffffffffffffffffffff161461113d576040517f08c379a0000000000000000000000000000000000000000000000000000000008152600401611134906152c3565b60405180910390fd5b600360008273ffffffffffffffffffffffffffffffffffffffff1673ffffffffffffffffffffffffffffffffffffffff16815260200190815260200160002060009054906101000a900460ff166111c9576040517f08c379a00000000000000000000000000000000000000000000000000000000081526004016111c090615502565b60405180910390fd5b6000600760008573ffffffffffffffffffffffffffffffffffffffff1673ffffffffffffffffffffffffffffffffffffffff168152602001908152602001600020905060005b8180549050811015611848578382828154811061122f5761122e6153e1565b5b9060005260206000209060060201600501541480156112a357506001600581111561125d5761125c614d73565b5b8282815481106112705761126f6153e1565b5b906000526020600020906006020160040160009054906101000a900460ff1660058111156112a1576112a0614d73565b5b145b1561183b57620546008282815481106112bf576112be6153e1565b5b9060005260206000209060060201600301546112db9190615522565b42111561131d576040517f08c379a0000000000000000000000000000000000000000000000000000000008152600401611314906155c8565b60405180910390fd5b82828281548110611331576113306153e1565b5b906000526020600020906006020160040160016101000a81548173ffffffffffffffffffffffffffffffffffffffff021916908373ffffffffffffffffffffffffffffffffffffffff1602179055506002828281548110611395576113946153e1565b5b906000526020600020906006020160040160006101000a81548160ff021916908360058111156113c8576113c7614d73565b5b0217905550600860008473ffffffffffffffffffffffffffffffffffffffff1673ffffffffffffffffffffffffffffffffffffffff16815260200190815260200160002082828154811061141f5761141e6153e1565b5b906000526020600020906006020190806001815401808255809150506001900390600052602060002090600602016000909190919091506000820160009054906101000a900473ffffffffffffffffffffffffffffffffffffffff168160000160006101000a81548173ffffffffffffffffffffffffffffffffffffffff021916908373ffffffffffffffffffffffffffffffffffffffff1602179055506001820160009054906101000a900473ffffffffffffffffffffffffffffffffffffffff168160010160006101000a81548173ffffffffffffffffffffffffffffffffffffffff021916908373ffffffffffffffffffffffffffffffffffffffff16021790555060028201548160020155600382015481600301556004820160009054906101000a900460ff168160040160006101000a81548160ff021916908360058111156115705761156f614d73565b5b02179055506004820160019054906101000a900473ffffffffffffffffffffffffffffffffffffffff168160040160016101000a81548173ffffffffffffffffffffffffffffffffffffffff021916908373ffffffffffffffffffffffffffffffffffffffff1602179055506004820160159054906101000a900460ff168160040160156101000a81548160ff0219169083151502179055506004820160169054906101000a900460ff168160040160166101000a81548160ff0219169083151502179055506004820160179054906101000a900460ff168160040160176101000a81548160ff0219169083151502179055506005820154816005015550506000600a60008060009054906101000a900473ffffffffffffffffffffffffffffffffffffffff1673ffffffffffffffffffffffffffffffffffffffff1673ffffffffffffffffffffffffffffffffffffffff168152602001908152602001600020905060005b81805490508110156117cf57858282815481106116f6576116f56153e1565b5b906000526020600020906006020160050154036117c25784828281548110611721576117206153e1565b5b906000526020600020906006020160040160016101000a81548173ffffffffffffffffffffffffffffffffffffffff021916908373ffffffffffffffffffffffffffffffffffffffff1602179055506002828281548110611785576117846153e1565b5b906000526020600020906006020160040160006101000a81548160ff021916908360058111156117b8576117b7614d73565b5b02179055506117cf565b80806001019150506116d6565b508373ffffffffffffffffffffffffffffffffffffffff168673ffffffffffffffffffffffffffffffffffffffff167fc33034f11e74148d192f7bb138128c9467a27564b7632a7883081e259e4991368760405161182d91906155e8565b60405180910390a350611848565b808060010191505061120f565b5050505050565b60066020528060005260406000206000915054906101000a900460ff1681565b60008054906101000a900473ffffffffffffffffffffffffffffffffffffffff1673ffffffffffffffffffffffffffffffffffffffff163373ffffffffffffffffffffffffffffffffffffffff16146118fd576040517f08c379a00000000000000000000000000000000000000000000000000000000081526004016118f4906152c3565b60405180910390fd5b6000600760008473ffffffffffffffffffffffffffffffffffffffff1673ffffffffffffffffffffffffffffffffffffffff168152602001908152602001600020905060005b8180549050811015611cd25782828281548110611963576119626153e1565b5b9060005260206000209060060201600501541480156119d757506000600581111561199157611990614d73565b5b8282815481106119a4576119a36153e1565b5b906000526020600020906006020160040160009054906101000a900460ff1660058111156119d5576119d4614d73565b5b145b15611cc557620546008282815481106119f3576119f26153e1565b5b906000526020600020906006020160030154611a0f9190615522565b421115611a51576040517f08c379a0000000000000000000000000000000000000000000000000000000008152600401611a4890615675565b60405180910390fd5b6001828281548110611a6657611a656153e1565b5b906000526020600020906006020160040160156101000a81548160ff0219169083151502179055506001828281548110611aa357611aa26153e1565b5b906000526020600020906006020160040160006101000a81548160ff02191690836005811115611ad657611ad5614d73565b5b02179055506000600a60008060009054906101000a900473ffffffffffffffffffffffffffffffffffffffff1673ffffffffffffffffffffffffffffffffffffffff1673ffffffffffffffffffffffffffffffffffffffff168152602001908152602001600020905060005b8180549050811015611c155784828281548110611b6257611b616153e1565b5b90600052602060002090600602016005015403611c08576001828281548110611b8e57611b8d6153e1565b5b906000526020600020906006020160040160156101000a81548160ff0219169083151502179055506001828281548110611bcb57611bca6153e1565b5b906000526020600020906006020160040160006101000a81548160ff02191690836005811115611bfe57611bfd614d73565b5b0217905550611c15565b8080600101915050611b42565b50828281548110611c2957611c286153e1565b5b906000526020600020906006020160000160009054906101000a900473ffffffffffffffffffffffffffffffffffffffff1673ffffffffffffffffffffffffffffffffffffffff163373ffffffffffffffffffffffffffffffffffffffff167f03393405d7395a0c4d585a29de9f0018db4a7348c4fb7789e78f9434be7cca1686604051611cb791906155e8565b60405180910390a350611cd2565b8080600101915050611943565b50505050565b60008054906101000a900473ffffffffffffffffffffffffffffffffffffffff1673ffffffffffffffffffffffffffffffffffffffff163373ffffffffffffffffffffffffffffffffffffffff161480611d7b5750600460003373ffffffffffffffffffffffffffffffffffffffff1673ffffffffffffffffffffffffffffffffffffffff16815260200190815260200160002060009054906101000a900460ff165b611dba576040517f08c379a0000000000000000000000000000000000000000000000000000000008152600401611db190615707565b60405180910390fd5b600460003373ffffffffffffffffffffffffffffffffffffffff1673ffffffffffffffffffffffffffffffffffffffff16815260200190815260200160002060009054906101000a900460ff16611e46576040517f08c379a0000000000000000000000000000000000000000000000000000000008152600401611e3d90615773565b60405180910390fd5b600660003384604051602001611e5d9291906157db565b60405160208183030381529060405280519060200120815260200190815260200160002060009054906101000a900460ff1615611ecf576040517f08c379a0000000000000000000000000000000000000000000000000000000008152600401611ec690615853565b60405180910390fd5b60008111611f12576040517f08c379a0000000000000000000000000000000000000000000000000000000008152600401611f09906158bf565b60405180910390fd5b60003383604051602001611f279291906157db565b60405160208183030381529060405280519060200120905060006040518061014001604052803373ffffffffffffffffffffffffffffffffffffffff1681526020018573ffffffffffffffffffffffffffffffffffffffff16815260200184815260200142815260200160006005811115611fa557611fa4614d73565b5b8152602001600073ffffffffffffffffffffffffffffffffffffffff168152602001600015158152602001600015158152602001600015158152602001838152509050600760003373ffffffffffffffffffffffffffffffffffffffff1673ffffffffffffffffffffffffffffffffffffffff16815260200190815260200160002081908060018154018082558091505060019003906000526020600020906006020160009091909190915060008201518160000160006101000a81548173ffffffffffffffffffffffffffffffffffffffff021916908373ffffffffffffffffffffffffffffffffffffffff16021790555060208201518160010160006101000a81548173ffffffffffffffffffffffffffffffffffffffff021916908373ffffffffffffffffffffffffffffffffffffffff160217905550604082015181600201556060820151816003015560808201518160040160006101000a81548160ff0219169083600581111561211e5761211d614d73565b5b021790555060a08201518160040160016101000a81548173ffffffffffffffffffffffffffffffffffffffff021916908373ffffffffffffffffffffffffffffffffffffffff16021790555060c08201518160040160156101000a81548160ff02191690831515021790555060e08201518160040160166101000a81548160ff0219169083151502179055506101008201518160040160176101000a81548160ff02191690831515021790555061012082015181600501555050600a60008060009054906101000a900473ffffffffffffffffffffffffffffffffffffffff1673ffffffffffffffffffffffffffffffffffffffff1673ffffffffffffffffffffffffffffffffffffffff16815260200190815260200160002081908060018154018082558091505060019003906000526020600020906006020160009091909190915060008201518160000160006101000a81548173ffffffffffffffffffffffffffffffffffffffff021916908373ffffffffffffffffffffffffffffffffffffffff16021790555060208201518160010160006101000a81548173ffffffffffffffffffffffffffffffffffffffff021916908373ffffffffffffffffffffffffffffffffffffffff160217905550604082015181600201556060820151816003015560808201518160040160006101000a81548160ff0219169083600581111561232f5761232e614d73565b5b021790555060a08201518160040160016101000a81548173ffffffffffffffffffffffffffffffffffffffff021916908373ffffffffffffffffffffffffffffffffffffffff16021790555060c08201518160040160156101000a81548160ff02191690831515021790555060e08201518160040160166101000a81548160ff0219169083151502179055506101008201518160040160176101000a81548160ff0219169083151502179055506101208201518160050155505060016006600084815260200190815260200160002060006101000a81548160ff0219169083151502179055508373ffffffffffffffffffffffffffffffffffffffff163373ffffffffffffffffffffffffffffffffffffffff167f5e70ce47de5651da95b32c055da196557493bdc1c460b116aaef9e18e53cfb82854260008760405161247994939291906158df565b60405180910390a36205460081606001516124949190615522565b4211156124d6576040517f08c379a00000000000000000000000000000000000000000000000000000000081526004016124cd90615996565b60405180910390fd5b50505050565b600860205281600052604060002081815481106124f857600080fd5b9060005260206000209060060201600091509150508060000160009054906101000a900473ffffffffffffffffffffffffffffffffffffffff16908060010160009054906101000a900473ffffffffffffffffffffffffffffffffffffffff16908060020154908060030154908060040160009054906101000a900460ff16908060040160019054906101000a900473ffffffffffffffffffffffffffffffffffffffff16908060040160159054906101000a900460ff16908060040160169054906101000a900460ff16908060040160179054906101000a900460ff1690806005015490508a565b600281815481106125f157600080fd5b906000526020600020016000915054906101000a900473ffffffffffffffffffffffffffffffffffffffff1681565b600560008373ffffffffffffffffffffffffffffffffffffffff1673ffffffffffffffffffffffffffffffffffffffff16815260200190815260200160002060009054906101000a900460ff161580156126c45750600460008373ffffffffffffffffffffffffffffffffffffffff1673ffffffffffffffffffffffffffffffffffffffff16815260200190815260200160002060009054906101000a900460ff16155b801561271a5750600360008373ffffffffffffffffffffffffffffffffffffffff1673ffffffffffffffffffffffffffffffffffffffff16815260200190815260200160002060009054906101000a900460ff16155b612759576040517f08c379a000000000000000000000000000000000000000000000000000000000815260040161275090615a02565b60405180910390fd5b6001600360008473ffffffffffffffffffffffffffffffffffffffff1673ffffffffffffffffffffffffffffffffffffffff16815260200190815260200160002060006101000a81548160ff0219169083151502179055506002829080600181540180825580915050600190039060005260206000200160009091909190916101000a81548173ffffffffffffffffffffffffffffffffffffffff021916908373ffffffffffffffffffffffffffffffffffffffff16021790555080600960008473ffffffffffffffffffffffffffffffffffffffff1673ffffffffffffffffffffffffffffffffffffffff168152602001908152602001600020600001819055505050565b60008054906101000a900473ffffffffffffffffffffffffffffffffffffffff1673ffffffffffffffffffffffffffffffffffffffff163373ffffffffffffffffffffffffffffffffffffffff1614806129025750600460003373ffffffffffffffffffffffffffffffffffffffff1673ffffffffffffffffffffffffffffffffffffffff16815260200190815260200160002060009054906101000a900460ff165b612941576040517f08c379a000000000000000000000000000000000000000000000000000000000815260040161293890615707565b60405180910390fd5b6000600760003373ffffffffffffffffffffffffffffffffffffffff1673ffffffffffffffffffffffffffffffffffffffff168152602001908152602001600020905060005b8180549050811015612d1b57828282815481106129a7576129a66153e1565b5b906000526020600020906006020160050154148015612a1b5750600360058111156129d5576129d4614d73565b5b8282815481106129e8576129e76153e1565b5b906000526020600020906006020160040160009054906101000a900460ff166005811115612a1957612a18614d73565b5b145b15612d0e5762015180828281548110612a3757612a366153e1565b5b906000526020600020906006020160030154612a539190615522565b421115612a95576040517f08c379a0000000000000000000000000000000000000000000000000000000008152600401612a8c90615a6e565b60405180910390fd5b6004828281548110612aaa57612aa96153e1565b5b906000526020600020906006020160040160006101000a81548160ff02191690836005811115612add57612adc614d73565b5b02179055506000828281548110612af757612af66153e1565b5b906000526020600020906006020160040160019054906101000a900473ffffffffffffffffffffffffffffffffffffffff1690506000600860008373ffffffffffffffffffffffffffffffffffffffff1673ffffffffffffffffffffffffffffffffffffffff168152602001908152602001600020905060005b8180549050811015612c075785828281548110612b9157612b906153e1565b5b90600052602060002090600602016005015403612bfa576004828281548110612bbd57612bbc6153e1565b5b906000526020600020906006020160040160006101000a81548160ff02191690836005811115612bf057612bef614d73565b5b0217905550612c07565b8080600101915050612b71565b506000600a60008060009054906101000a900473ffffffffffffffffffffffffffffffffffffffff1673ffffffffffffffffffffffffffffffffffffffff1673ffffffffffffffffffffffffffffffffffffffff168152602001908152602001600020905060005b8180549050811015612d055786828281548110612c8f57612c8e6153e1565b5b90600052602060002090600602016005015403612cf8576004828281548110612cbb57612cba6153e1565b5b906000526020600020906006020160040160006101000a81548160ff02191690836005811115612cee57612ced614d73565b5b0217905550612d05565b8080600101915050612c6f565b50505050612d1b565b8080600101915050612987565b505050565b600560008273ffffffffffffffffffffffffffffffffffffffff1673ffffffffffffffffffffffffffffffffffffffff16815260200190815260200160002060009054906101000a900460ff16158015612dc45750600360008273ffffffffffffffffffffffffffffffffffffffff1673ffffffffffffffffffffffffffffffffffffffff16815260200190815260200160002060009054906101000a900460ff16155b8015612e1a5750600460008273ffffffffffffffffffffffffffffffffffffffff1673ffffffffffffffffffffffffffffffffffffffff16815260200190815260200160002060009054906101000a900460ff16155b612e59576040517f08c379a0000000000000000000000000000000000000000000000000000000008152600401612e5090615a02565b60405180910390fd5b6001600460008373ffffffffffffffffffffffffffffffffffffffff1673ffffffffffffffffffffffffffffffffffffffff16815260200190815260200160002060006101000a81548160ff0219169083151502179055506001819080600181540180825580915050600190039060005260206000200160009091909190916101000a81548173ffffffffffffffffffffffffffffffffffffffff021916908373ffffffffffffffffffffffffffffffffffffffff16021790555050565b606060008054906101000a900473ffffffffffffffffffffffffffffffffffffffff1673ffffffffffffffffffffffffffffffffffffffff163373ffffffffffffffffffffffffffffffffffffffff161480612fbc5750600360003373ffffffffffffffffffffffffffffffffffffffff1673ffffffffffffffffffffffffffffffffffffffff16815260200190815260200160002060009054906101000a900460ff165b612ffb576040517f08c379a0000000000000000000000000000000000000000000000000000000008152600401612ff290615355565b60405180910390fd5b600360008373ffffffffffffffffffffffffffffffffffffffff1673ffffffffffffffffffffffffffffffffffffffff16815260200190815260200160002060009054906101000a900460ff16613087576040517f08c379a000000000000000000000000000000000000000000000000000000000815260040161307e906153c1565b60405180910390fd5b6000600860008473ffffffffffffffffffffffffffffffffffffffff1673ffffffffffffffffffffffffffffffffffffffff168152602001908152602001600020805480602002602001604051908101604052809291908181526020016000905b828210156132c75783829060005260206000209060060201604051806101400160405290816000820160009054906101000a900473ffffffffffffffffffffffffffffffffffffffff1673ffffffffffffffffffffffffffffffffffffffff1673ffffffffffffffffffffffffffffffffffffffff1681526020016001820160009054906101000a900473ffffffffffffffffffffffffffffffffffffffff1673ffffffffffffffffffffffffffffffffffffffff1673ffffffffffffffffffffffffffffffffffffffff16815260200160028201548152602001600382015481526020016004820160009054906101000a900460ff1660058111156131f1576131f0614d73565b5b600581111561320357613202614d73565b5b81526020016004820160019054906101000a900473ffffffffffffffffffffffffffffffffffffffff1673ffffffffffffffffffffffffffffffffffffffff1673ffffffffffffffffffffffffffffffffffffffff1681526020016004820160159054906101000a900460ff161515151581526020016004820160169054906101000a900460ff161515151581526020016004820160179054906101000a900460ff16151515158152602001600582015481525050815260200190600101906130e8565b5050505090506000805b8251811015613395578473ffffffffffffffffffffffffffffffffffffffff16838281518110613304576133036153e1565b5b602002602001015160a0015173ffffffffffffffffffffffffffffffffffffffff16148015613374575060058081111561334157613340614d73565b5b838281518110613354576133536153e1565b5b602002602001015160800151600581111561337257613371614d73565b5b145b156133885781806133849061543f565b9250505b80806001019150506132d1565b5060008167ffffffffffffffff8111156133b2576133b1615487565b5b6040519080825280602002602001820160405280156133eb57816020015b6133d8614b63565b8152602001906001900390816133d05790505b5090506000805b84518110156134ef578673ffffffffffffffffffffffffffffffffffffffff16858281518110613425576134246153e1565b5b602002602001015160a0015173ffffffffffffffffffffffffffffffffffffffff16148015613495575060058081111561346257613461614d73565b5b858281518110613475576134746153e1565b5b602002602001015160800151600581111561349357613492614d73565b5b145b156134e2578481815181106134ad576134ac6153e1565b5b60200260200101518383815181106134c8576134c76153e1565b5b602002602001018190525081806134de9061543f565b9250505b80806001019150506133f2565b5081945050505050919050565b600a602052816000526040600020818154811061351857600080fd5b9060005260206000209060060201600091509150508060000160009054906101000a900473ffffffffffffffffffffffffffffffffffffffff16908060010160009054906101000a900473ffffffffffffffffffffffffffffffffffffffff16908060020154908060030154908060040160009054906101000a900460ff16908060040160019054906101000a900473ffffffffffffffffffffffffffffffffffffffff16908060040160159054906101000a900460ff16908060040160169054906101000a900460ff16908060040160179054906101000a900460ff1690806005015490508a565b606060008054906101000a900473ffffffffffffffffffffffffffffffffffffffff1673ffffffffffffffffffffffffffffffffffffffff163373ffffffffffffffffffffffffffffffffffffffff1614806136a65750600460003373ffffffffffffffffffffffffffffffffffffffff1673ffffffffffffffffffffffffffffffffffffffff16815260200190815260200160002060009054906101000a900460ff165b6136e5576040517f08c379a00000000000000000000000000000000000000000000000000000000081526004016136dc90615707565b60405180910390fd5b600760008373ffffffffffffffffffffffffffffffffffffffff1673ffffffffffffffffffffffffffffffffffffffff168152602001908152602001600020805480602002602001604051908101604052809291908181526020016000905b828210156139235783829060005260206000209060060201604051806101400160405290816000820160009054906101000a900473ffffffffffffffffffffffffffffffffffffffff1673ffffffffffffffffffffffffffffffffffffffff1673ffffffffffffffffffffffffffffffffffffffff1681526020016001820160009054906101000a900473ffffffffffffffffffffffffffffffffffffffff1673ffffffffffffffffffffffffffffffffffffffff1673ffffffffffffffffffffffffffffffffffffffff16815260200160028201548152602001600382015481526020016004820160009054906101000a900460ff16600581111561384d5761384c614d73565b5b600581111561385f5761385e614d73565b5b81526020016004820160019054906101000a900473ffffffffffffffffffffffffffffffffffffffff1673ffffffffffffffffffffffffffffffffffffffff1673ffffffffffffffffffffffffffffffffffffffff1681526020016004820160159054906101000a900460ff161515151581526020016004820160169054906101000a900460ff161515151581526020016004820160179054906101000a900460ff1615151515815260200160058201548152505081526020019060010190613744565b505050509050919050565b60056020528060005260406000206000915054906101000a900460ff1681565b60008054906101000a900473ffffffffffffffffffffffffffffffffffffffff1673ffffffffffffffffffffffffffffffffffffffff163373ffffffffffffffffffffffffffffffffffffffff1614806139f15750600360003373ffffffffffffffffffffffffffffffffffffffff1673ffffffffffffffffffffffffffffffffffffffff16815260200190815260200160002060009054906101000a900460ff165b613a30576040517f08c379a0000000000000000000000000000000000000000000000000000000008152600401613a2790615355565b60405180910390fd5b6000600760008473ffffffffffffffffffffffffffffffffffffffff1673ffffffffffffffffffffffffffffffffffffffff168152602001908152602001600020905060005b8180549050811015613f445782828281548110613a9657613a956153e1565b5b906000526020600020906006020160050154148015613b0a575060046005811115613ac457613ac3614d73565b5b828281548110613ad757613ad66153e1565b5b906000526020600020906006020160040160009054906101000a900460ff166005811115613b0857613b07614d73565b5b145b8015613b8557503373ffffffffffffffffffffffffffffffffffffffff16828281548110613b3b57613b3a6153e1565b5b906000526020600020906006020160040160019054906101000a900473ffffffffffffffffffffffffffffffffffffffff1673ffffffffffffffffffffffffffffffffffffffff16145b15613f37576001828281548110613b9f57613b9e6153e1565b5b906000526020600020906006020160040160176101000a81548160ff0219169083151502179055506005828281548110613bdc57613bdb6153e1565b5b906000526020600020906006020160040160006101000a81548160ff02191690836005811115613c0f57613c0e614d73565b5b02179055506000828281548110613c2957613c286153e1565b5b906000526020600020906006020160040160019054906101000a900473ffffffffffffffffffffffffffffffffffffffff169050828281548110613c7057613c6f6153e1565b5b906000526020600020906006020160020154600960008373ffffffffffffffffffffffffffffffffffffffff1673ffffffffffffffffffffffffffffffffffffffff1681526020019081526020016000206002016000828254613cd39190615a8e565b925050819055506000600860008373ffffffffffffffffffffffffffffffffffffffff1673ffffffffffffffffffffffffffffffffffffffff168152602001908152602001600020905060005b8180549050811015613df35785828281548110613d4057613d3f6153e1565b5b90600052602060002090600602016005015403613de6576001828281548110613d6c57613d6b6153e1565b5b906000526020600020906006020160040160176101000a81548160ff0219169083151502179055506005828281548110613da957613da86153e1565b5b906000526020600020906006020160040160006101000a81548160ff02191690836005811115613ddc57613ddb614d73565b5b0217905550613df3565b8080600101915050613d20565b506000600a60008060009054906101000a900473ffffffffffffffffffffffffffffffffffffffff1673ffffffffffffffffffffffffffffffffffffffff1673ffffffffffffffffffffffffffffffffffffffff168152602001908152602001600020905060005b8180549050811015613f2e5786828281548110613e7b57613e7a6153e1565b5b90600052602060002090600602016005015403613f21576001828281548110613ea757613ea66153e1565b5b906000526020600020906006020160040160176101000a81548160ff0219169083151502179055506005828281548110613ee457613ee36153e1565b5b906000526020600020906006020160040160006101000a81548160ff02191690836005811115613f1757613f16614d73565b5b0217905550613f2e565b8080600101915050613e5b565b50505050613f44565b8080600101915050613a76565b50505050565b60096020528060005260406000206000915090508060000154908060010154908060020154905083565b60046020528060005260406000206000915054906101000a900460ff1681565b60076020528160005260406000208181548110613fb057600080fd5b9060005260206000209060060201600091509150508060000160009054906101000a900473ffffffffffffffffffffffffffffffffffffffff16908060010160009054906101000a900473ffffffffffffffffffffffffffffffffffffffff16908060020154908060030154908060040160009054906101000a900460ff16908060040160019054906101000a900473ffffffffffffffffffffffffffffffffffffffff16908060040160159054906101000a900460ff16908060040160169054906101000a900460ff16908060040160179054906101000a900460ff1690806005015490508a565b600460008273ffffffffffffffffffffffffffffffffffffffff1673ffffffffffffffffffffffffffffffffffffffff16815260200190815260200160002060009054906101000a900460ff1615801561413d5750600360008273ffffffffffffffffffffffffffffffffffffffff1673ffffffffffffffffffffffffffffffffffffffff16815260200190815260200160002060009054906101000a900460ff16155b80156141935750600560008273ffffffffffffffffffffffffffffffffffffffff1673ffffffffffffffffffffffffffffffffffffffff16815260200190815260200160002060009054906101000a900460ff16155b6141d2576040517f08c379a00000000000000000000000000000000000000000000000000000000081526004016141c990615a02565b60405180910390fd5b6001600560008373ffffffffffffffffffffffffffffffffffffffff1673ffffffffffffffffffffffffffffffffffffffff16815260200190815260200160002060006101000a81548160ff021916908315150217905550806000806101000a81548173ffffffffffffffffffffffffffffffffffffffff021916908373ffffffffffffffffffffffffffffffffffffffff16021790555050565b60008054906101000a900473ffffffffffffffffffffffffffffffffffffffff1673ffffffffffffffffffffffffffffffffffffffff163373ffffffffffffffffffffffffffffffffffffffff16146142fb576040517f08c379a00000000000000000000000000000000000000000000000000000000081526004016142f2906152c3565b60405180910390fd5b6000600760008573ffffffffffffffffffffffffffffffffffffffff1673ffffffffffffffffffffffffffffffffffffffff1681526020019081526020016000209050600060028361434d9190615ac2565b90506000805b83805490508110156149465785848281548110614373576143726153e1565b5b9060005260206000209060060201600501541480156143e75750600260058111156143a1576143a0614d73565b5b8482815481106143b4576143b36153e1565b5b906000526020600020906006020160040160009054906101000a900460ff1660058111156143e5576143e4614d73565b5b145b15614939578381815481106143ff576143fe6153e1565b5b906000526020600020906006020160040160159054906101000a900460ff1661445d576040517f08c379a000000000000000000000000000000000000000000000000000000000815260040161445490615b50565b60405180910390fd5b8381815481106144705761446f6153e1565b5b906000526020600020906006020160040160169054906101000a900460ff16156144cf576040517f08c379a00000000000000000000000000000000000000000000000000000000081526004016144c690615be2565b60405180910390fd5b60018482815481106144e4576144e36153e1565b5b906000526020600020906006020160040160166101000a81548160ff0219169083151502179055506003848281548110614521576145206153e1565b5b906000526020600020906006020160040160006101000a81548160ff0219169083600581111561455457614553614d73565b5b021790555083818154811061456c5761456b6153e1565b5b906000526020600020906006020160000160009054906101000a900473ffffffffffffffffffffffffffffffffffffffff1673ffffffffffffffffffffffffffffffffffffffff163373ffffffffffffffffffffffffffffffffffffffff167f64d831a72eb116207e4c18a6c1c8b5c01e67dc3f6cd26e8866b95e5a5ad5cf1285896040516145fc929190615c02565b60405180910390a36000848281548110614619576146186153e1565b5b906000526020600020906006020160040160019054906101000a900473ffffffffffffffffffffffffffffffffffffffff1690506000600860008373ffffffffffffffffffffffffffffffffffffffff1673ffffffffffffffffffffffffffffffffffffffff168152602001908152602001600020905060005b818054905081101561476657888282815481106146b3576146b26153e1565b5b906000526020600020906006020160050154036147595760018282815481106146df576146de6153e1565b5b906000526020600020906006020160040160166101000a81548160ff021916908315150217905550600382828154811061471c5761471b6153e1565b5b906000526020600020906006020160040160006101000a81548160ff0219169083600581111561474f5761474e614d73565b5b0217905550614766565b8080600101915050614693565b506000600a60008060009054906101000a900473ffffffffffffffffffffffffffffffffffffffff1673ffffffffffffffffffffffffffffffffffffffff1673ffffffffffffffffffffffffffffffffffffffff168152602001908152602001600020905060005b81805490508110156148a157898282815481106147ee576147ed6153e1565b5b9060005260206000209060060201600501540361489457600182828154811061481a576148196153e1565b5b906000526020600020906006020160040160166101000a81548160ff0219169083151502179055506003828281548110614857576148566153e1565b5b906000526020600020906006020160040160006101000a81548160ff0219169083600581111561488a57614889614d73565b5b02179055506148a1565b80806001019150506147ce565b508684815481106148b5576148b46153e1565b5b906000526020600020906006020160000160009054906101000a900473ffffffffffffffffffffffffffffffffffffffff1673ffffffffffffffffffffffffffffffffffffffff166108fc879081150290604051600060405180830381858888f1935050505015801561492c573d6000803e3d6000fd5b5060019450505050614946565b8080600101915050614353565b5080614987576040517f08c379a000000000000000000000000000000000000000000000000000000000815260040161497e90615c9d565b60405180910390fd5b505050505050565b6001818154811061499f57600080fd5b906000526020600020016000915054906101000a900473ffffffffffffffffffffffffffffffffffffffff1681565b60008054906101000a900473ffffffffffffffffffffffffffffffffffffffff1681565b600360003373ffffffffffffffffffffffffffffffffffffffff1673ffffffffffffffffffffffffffffffffffffffff16815260200190815260200160002060009054906101000a900460ff16614a7e576040517f08c379a0000000000000000000000000000000000000000000000000000000008152600401614a7590615d2f565b60405180910390fd5b80600960003373ffffffffffffffffffffffffffffffffffffffff1673ffffffffffffffffffffffffffffffffffffffff1681526020019081526020016000206001018190555080600960003373ffffffffffffffffffffffffffffffffffffffff1673ffffffffffffffffffffffffffffffffffffffff1681526020019081526020016000206002018190555050565b60008060009054906101000a900473ffffffffffffffffffffffffffffffffffffffff16905090565b60006a636f6e736f6c652e6c6f679050600080835160208501845afa505050565b614b61615d4f565b565b604051806101400160405280600073ffffffffffffffffffffffffffffffffffffffff168152602001600073ffffffffffffffffffffffffffffffffffffffff168152602001600081526020016000815260200160006005811115614bcb57614bca614d73565b5b8152602001600073ffffffffffffffffffffffffffffffffffffffff168152602001600015158152602001600015158152602001600015158152602001600080191681525090565b600080fd5b600073ffffffffffffffffffffffffffffffffffffffff82169050919050565b6000614c4382614c18565b9050919050565b614c5381614c38565b8114614c5e57600080fd5b50565b600081359050614c7081614c4a565b92915050565b600060208284031215614c8c57614c8b614c13565b5b6000614c9a84828501614c61565b91505092915050565b60008115159050919050565b614cb881614ca3565b82525050565b6000602082019050614cd36000830184614caf565b92915050565b6000819050919050565b614cec81614cd9565b82525050565b6000606082019050614d076000830186614ce3565b614d146020830185614ce3565b614d216040830184614ce3565b949350505050565b600081519050919050565b600082825260208201905092915050565b6000819050602082019050919050565b614d5e81614c38565b82525050565b614d6d81614cd9565b82525050565b7f4e487b7100000000000000000000000000000000000000000000000000000000600052602160045260246000fd5b60068110614db357614db2614d73565b5b50565b6000819050614dc482614da2565b919050565b6000614dd482614db6565b9050919050565b614de481614dc9565b82525050565b614df381614ca3565b82525050565b6000819050919050565b614e0c81614df9565b82525050565b61014082016000820151614e296000850182614d55565b506020820151614e3c6020850182614d55565b506040820151614e4f6040850182614d64565b506060820151614e626060850182614d64565b506080820151614e756080850182614ddb565b5060a0820151614e8860a0850182614d55565b5060c0820151614e9b60c0850182614dea565b5060e0820151614eae60e0850182614dea565b50610100820151614ec3610100850182614dea565b50610120820151614ed8610120850182614e03565b50505050565b6000614eea8383614e12565b6101408301905092915050565b6000602082019050919050565b6000614f0f82614d29565b614f198185614d34565b9350614f2483614d45565b8060005b83811015614f55578151614f3c8882614ede565b9750614f4783614ef7565b925050600181019050614f28565b5085935050505092915050565b60006020820190508181036000830152614f7c8184614f04565b905092915050565b614f8d81614df9565b8114614f9857600080fd5b50565b600081359050614faa81614f84565b92915050565b600080600060608486031215614fc957614fc8614c13565b5b6000614fd786828701614c61565b9350506020614fe886828701614f9b565b9250506040614ff986828701614c61565b9150509250925092565b60006020828403121561501957615018614c13565b5b600061502784828501614f9b565b91505092915050565b6000806040838503121561504757615046614c13565b5b600061505585828601614c61565b925050602061506685828601614f9b565b9150509250929050565b61507981614cd9565b811461508457600080fd5b50565b60008135905061509681615070565b92915050565b600080604083850312156150b3576150b2614c13565b5b60006150c185828601614c61565b92505060206150d285828601615087565b9150509250929050565b6150e581614c38565b82525050565b6150f481614dc9565b82525050565b61510381614df9565b82525050565b60006101408201905061511f600083018d6150dc565b61512c602083018c6150dc565b615139604083018b614ce3565b615146606083018a614ce3565b61515360808301896150eb565b61516060a08301886150dc565b61516d60c0830187614caf565b61517a60e0830186614caf565b615188610100830185614caf565b6151966101208301846150fa565b9b9a5050505050505050505050565b6000602082840312156151bb576151ba614c13565b5b60006151c984828501615087565b91505092915050565b60006020820190506151e760008301846150dc565b92915050565b60008060006060848603121561520657615205614c13565b5b600061521486828701614c61565b935050602061522586828701614f9b565b925050604061523686828701615087565b9150509250925092565b600082825260208201905092915050565b7f4f6e6c792046434920636f6e74726163742063616e2063616c6c20746869732060008201527f66756e6374696f6e000000000000000000000000000000000000000000000000602082015250565b60006152ad602883615240565b91506152b882615251565b604082019050919050565b600060208201905081810360008301526152dc816152a0565b9050919050565b7f4f6e6c7920464349206f72204d696c6c657220636f6e74726163742063616e2060008201527f63616c6c20746869732066756e6374696f6e0000000000000000000000000000602082015250565b600061533f603283615240565b915061534a826152e3565b604082019050919050565b6000602082019050818103600083015261536e81615332565b9050919050565b7f41646472657373206973206e6f742061204d696c6c6572000000000000000000600082015250565b60006153ab601783615240565b91506153b682615375565b602082019050919050565b600060208201905081810360008301526153da8161539e565b9050919050565b7f4e487b7100000000000000000000000000000000000000000000000000000000600052603260045260246000fd5b7f4e487b7100000000000000000000000000000000000000000000000000000000600052601160045260246000fd5b600061544a82614cd9565b91507fffffffffffffffffffffffffffffffffffffffffffffffffffffffffffffffff820361547c5761547b615410565b5b600182019050919050565b7f4e487b7100000000000000000000000000000000000000000000000000000000600052604160045260246000fd5b7f496e76616c6964206d696c6c6572206164647265737300000000000000000000600082015250565b60006154ec601683615240565b91506154f7826154b6565b602082019050919050565b6000602082019050818103600083015261551b816154df565b9050919050565b600061552d82614cd9565b915061553883614cd9565b92508282019050808211156155505761554f615410565b5b92915050565b7f4d696c6c65722061737369676e6d656e7420646561646c696e6520706173736560008201527f6400000000000000000000000000000000000000000000000000000000000000602082015250565b60006155b2602183615240565b91506155bd82615556565b604082019050919050565b600060208201905081810360008301526155e1816155a5565b9050919050565b60006020820190506155fd60008301846150fa565b92915050565b7f5175616c697479204173736573736d656e7420646561646c696e65207061737360008201527f6564000000000000000000000000000000000000000000000000000000000000602082015250565b600061565f602283615240565b915061566a82615603565b604082019050919050565b6000602082019050818103600083015261568e81615652565b9050919050565b7f4f6e6c7920464349206f72204661726d657220636f6e74726163742063616e2060008201527f63616c6c20746869732066756e6374696f6e0000000000000000000000000000602082015250565b60006156f1603283615240565b91506156fc82615695565b604082019050919050565b60006020820190508181036000830152615720816156e4565b9050919050565b7f4f6e6c79206661726d6572732063616e20637265617465206f72646572730000600082015250565b600061575d601e83615240565b915061576882615727565b602082019050919050565b6000602082019050818103600083015261578c81615750565b9050919050565b60008160601b9050919050565b60006157ab82615793565b9050919050565b60006157bd826157a0565b9050919050565b6157d56157d082614c38565b6157b2565b82525050565b60006157e782856157c4565b6014820191506157f782846157c4565b6014820191508190509392505050565b7f4f7264657220616c726561647920657869737473000000000000000000000000600082015250565b600061583d601483615240565b915061584882615807565b602082019050919050565b6000602082019050818103600083015261586c81615830565b9050919050565b7f5175616e74697479206d7573742062652067726561746572207468616e203000600082015250565b60006158a9601f83615240565b91506158b482615873565b602082019050919050565b600060208201905081810360008301526158d88161589c565b9050919050565b60006080820190506158f46000830187614ce3565b6159016020830186614ce3565b61590e60408301856150eb565b61591b60608301846150fa565b95945050505050565b7f5175616c697479206173736573736d656e7420646561646c696e65207061737360008201527f6564000000000000000000000000000000000000000000000000000000000000602082015250565b6000615980602283615240565b915061598b82615924565b604082019050919050565b600060208201905081810360008301526159af81615973565b9050919050565b7f4164647265737320616c72656164792072656769737465726564200000000000600082015250565b60006159ec601b83615240565b91506159f7826159b6565b602082019050919050565b60006020820190508181036000830152615a1b816159df565b9050919050565b7f44656c697665727920737461727420646561646c696e65207061737365640000600082015250565b6000615a58601e83615240565b9150615a6382615a22565b602082019050919050565b60006020820190508181036000830152615a8781615a4b565b9050919050565b6000615a9982614cd9565b9150615aa483614cd9565b9250828203905081811115615abc57615abb615410565b5b92915050565b6000615acd82614cd9565b9150615ad883614cd9565b9250828202615ae681614cd9565b91508282048414831517615afd57615afc615410565b5b5092915050565b7f5175616c697479206173736573736d656e74206e6f7420636f6d706c65746564600082015250565b6000615b3a602083615240565b9150615b4582615b04565b602082019050919050565b60006020820190508181036000830152615b6981615b2d565b9050919050565b7f5061796d656e7420616c726561647920636f6d706c6574656420666f7220746860008201527f6973206f72646572000000000000000000000000000000000000000000000000602082015250565b6000615bcc602883615240565b9150615bd782615b70565b604082019050919050565b60006020820190508181036000830152615bfb81615bbf565b9050919050565b6000604082019050615c176000830185614ce3565b615c2460208301846150fa565b9392505050565b7f5061796d656e7420616c726561647920636f6d706c6574656420666f7220746860008201527f6973206f72646572206f72206f72646572206e6f7420666f756e640000000000602082015250565b6000615c87603b83615240565b9150615c9282615c2b565b604082019050919050565b60006020820190508181036000830152615cb681615c7a565b9050919050565b7f4f6e6c79206d696c6c6572732063616e2073657420746172676574207175616e60008201527f7469747900000000000000000000000000000000000000000000000000000000602082015250565b6000615d19602483615240565b9150615d2482615cbd565b604082019050919050565b60006020820190508181036000830152615d4881615d0c565b9050919050565b7f4e487b7100000000000000000000000000000000000000000000000000000000600052605160045260246000fdfea264697066735822122095c5e945cea78347121f5aadd3ef0b9516457501edb7135e37c4b7c1cab6f6ad64736f6c63430008180033",
  "linkReferences": {},
  "deployedLinkReferences": {}
}